S0200000687964726F706F6E69635F617474696E7931305F636F64652E7372656372
S11300000AC011C010C00FC010C00DC00CC00BC07E
S11300100BC009C00BC011271FBFCFE5D0E0DEBF66
S1130020CDBF6DD0E5C0ECCF189518951895A8955F
S113003083FD02C048E001C048E258ED8770842B7C
S11300400FB7F894A8955CBF81BF0FBF41B7406458
S113005041BF4AB7417F44604ABF4AB741604ABF83
S11300604FB77894889560E00FB7F894A8955CBF73
S113007061B7677F61BF0FBF4FBF4AB74E7F4ABFAB
S11300800895129A41E0841758F05FEF60E772E038
S1130090515060407040E1F700C000004F5FF3CF63
S11300A01298089544E080E090E0EE9AEE99FECF35
S11300B059B3850F911F4150C1F796958795969531
S11300C08795089577BD66BD40E14EBD4BE04DBDBB
S11300D019BD18BD41E050E08417950750F06FEC4E
S11300E077E061507040E9F700C000004F5F5F4F58
S11300F0F3CF4DB5487F4DBD1EBD1198089548ED11
S11301004CBF17BF4CBF16BF44E041B912981BBB8C
S113011041E047BB43E84DBB099A789420E030E0C6
S1130120D2E1CBE4CB3471F56EE470E086E490E088
S1130130C9DFB8DF8530910780F4D23101F584E658
S1130140A0DF6EE870E088EC90E0BCDF60ED70E06A
S113015088EC90E0B7DF20E00FC0D63080F084E672
S113016090DF60ED70E088EC90E0ACDF6EE870E06A
S113017088EC90E0A7DF21E032E0D1E001C0DF5F4E
S1130180CBE027C08C2F67E027D0692F70E041E0D7
S113019050E0311302C040E050E046235723CF5FC4
S11301A0452BB9F0315084E66CDF222341F060ED39
S11301B070E088EC90E086DF6EE870E007C06EE8DF
S11301C070E088EC90E07EDF60ED70E088EC90E019
S11301D079DF89E02CDFA6CF991B79E004C0991F51
S11301E0961708F0961B881F7A95C9F7809508958D
S10701F0F894FFCFAD
S9030000FC
